:02000000B22B21
:10000800FF00030E8301A8000A08A6008A017008F1
:10001800A2007108A1000408A3008C1E24288C12D9
:10002800AB2370080A3A0319232824082507B100CE
:10003800AB233108840070088000A40A2428A40196
:100048002208F0002108F1002308840026088A000D
:0A005800280E8300FF0E7F0E090042
:0E006200213083120313FD00FD0B352808002A
:0600700000000000080082
:100076000F3083120313FC004730FD00FD0B4128AF
:0A008600FC0B4128000000000800F8
:10009000FB09FA09F909F809F80A0319F90A031919
:0800A000FA0A0319FB0A08002B
:1000A80083120313B01B5A2886115B288615301B50
:1000B8005F28061160280615B01A6428861065287E
:1000C8008614301A692806106A28061427186E281C
:1000D80006166F280612861638208612B01976285A
:1000E80086117728861530197B2806117C28061575
:1000F800B0188028861081288614301885280610A4
:100108008628061427188A2806168B2806128616AB
:1001180038208612271C92283B209328312008007B
:100128007408F8027508031C750FF9027608031C99
:10013800760FFA027708031C770FFB02F30D0730DE
:10014800FC00730DF80DF90DFA0DFB0D7408731C06
:10015800BB28F8027508031C750FF9027608031C02
:10016800760FFA027708031C770FFB02C828F807F6
:1001780075080318750FF90776080318760FFA073C
:1001880077080318770FFB07F30DFC0BA528720DF2
:10019800F80DF90DFA0DFB0D7408731CE128F8022F
:1001A8007508031C750FF9027608031C760FFA020E
:1001B8007708031C770FFB02EE28F8077508031869
:1001C800750FF90776080318760FFA0777080318EA
:1001D800770FFB07F20D0730FC00720DF80DF90DD3
:1001E800FA0DFB0D7408721C0729F8027508031C28
:1001F800750FF9027608031C760FFA027708031CBC
:10020800770FFB021429F80775080318750FF9070B
:1002180076080318760FFA0777080318770FFB0795
:10022800F20DFC0BF128710DF80DF90DFA0DFB0D0F
:100238007408721C2D29F8027508031C750FF90241
:100248007608031C760FFA027708031C770FFB0267
:100258003A29F80775080318750FF907760803187F
:10026800760FFA0777080318770FFB07F10D0730A9
:10027800FC00710DF80DF90DFA0DFB0D7408711CD9
:100288005329F8027508031C750FF9027608031C38
:10029800760FFA027708031C770FFB026029F8072C
:1002A80075080318750FF90776080318760FFA070B
:1002B80077080318770FFB07F10DFC0B3D29700D2C
:1002C800F80DF90DFA0DFB0D7408711C7929F80267
:1002D8007508031C750FF9027608031C760FFA02DD
:1002E8007708031C770FFB028629F807750803189F
:1002F800750FF90776080318760FFA0777080318B9
:10030800770FFB07F00D0730FC00700DF80DF90DA5
:10031800FA0DFB0D7408701C9F29F8027508031C60
:10032800750FF9027608031C760FFA027708031C8A
:10033800770FFB02AC29F80775080318750FF90742
:1003480076080318760FFA0777080318770FFB0764
:10035800F00DFC0B89297018BF297408F807750877
:100368000318750FF90776080318760FFA07770848
:080378000318770FFB070800D2
:0E03800019308400831203132F088000080038
:10038E00831203137408003A031DE2297508003A1C
:10039E00031DE2297608003A031DE2297708003A88
:1003AE00031DE229FF30F000FF30F100FF30F200B4
:1003BE007F30F3007B2A83120313FC01F71BFC0A28
:1003CE00FD01FB01FA01F901F801730872047104D1
:1003DE0070040319762A73087706A000A01BFD0986
:1003EE00F71F042AF409F509F609F709F40A0319A7
:1003FE00F50A0319F60A0319F70AF31F112AF00971
:10040E00F109F209F309F00A0319F10A0319F20AC4
:10041E000319F30A73087704A000A01B322A942054
:10042E00FC1B4F2AFD1F762AF009F109F209F30988
:10043E00F00A0319F10A0319F20A0319F30AF8096B
:10044E00F909FA09FB09F80A0319F90A0319FA0A54
:10045E000319FB0A762AF71F492AF31B432A73084E
:10046E00FB007208FA007108F9007008F800F30139
:10047E00F201F101F001192AF301F201F101F0018B
:10048E00F00A0034F309F209F109F009FC17162AF3
:10049E00F80A0319F90A0319FA0A0319FB0A740870
:1004AE007802031D192A75087902031D192A760888
:1004BE007A02031D192A77087B02031D192AFB01F4
:1004CE00FA01F901F801F00A0319F10A0319F20A07
:1004DE000319F30AF31F192AA0012016FF34A001F5
:0A04EE007C1C7A2A4820003E08001A
:0E04F800831203132A088A00290882000800D4
:100506008312031327102F08B00054202714080065
:0A051600831203132508F00008000B
:100520008316031386120612061086100611861112
:1005300083128612061286110611861006103B20C1
:100540003B203B20861406148616382086123B205A
:100550008616382086123B208616382086123B20CD
:1005600006108616382086123B2086163820861202
:10057000861086158616382086123B2086110614B2
:1005800086163820861206108616382086123B20E2
:1005900086163820861206148616382086123B20CE
:1005A000061086163820861286150615861406143F
:0C05B0008616382086123B202714080015
:1005BC00831203132B08A9002C08AA007C228A1191
:1005CC000A12F1007108003A0319F92A2B08A90044
:1005DC002C08AA007C228A110A12AF00C021AB0A97
:0805EC000319AC0ADE2A080025
:1005F4007C228A110A128000840AA90A0319AA0A11
:08060400F003031DFA2A0800AF
:10060C00063083120313F0002B08F4002C08F500BD
:10061C0070080319162BF40DF50D7410FF3E0F2BFB
:10062C000030F600F7000030F0001230F1007A30A4
:10063C00F2000030F300C721F003993084007008F9
:10064C0080009830F100710884000008F0007012EE
:10065C0071088400700880001830F1007108840063
:10066C000008F000F01771088400700880008C30CE
:10067C00F100710884000008F000F0167108840085
:10068C00700880009830F100710884000008F000B8
:10069C00F01671088400700880001830F1007108A1
:1006AC0084000008F0007016710884007008800047
:1006BC000B30F1000B3084000008F000F0177017BD
:0A06CC007108840070088000080027
:1006D6007D2B803083120313AB00902BC030AB0010
:1006E600902B9430AB00902BD430AB00902B803005
:1006F600AB00902B831203132B08013A03196C2BC2
:100706002B08023A0319712B2B08033A0319742B91
:100716002B08043A0319772B7A2B2C03F0002B08AD
:10072600F0077008AB007008B00054202710AE0127
:100736002E082D07840000080319A92B2E082D0763
:1007460084000008AF008322AE0A9B2B2714080002
:0E0756001A308400000883120313F00008001C
:10076400E823803083120313AB002530AC0006234A
:100774009022831685018601E1308312AB00033099
:10078400AC00DE228B227008AD000130AB000130DA
:10079400AC006B230B30FB002630FC005D30FD0009
:1007A400FD0BD22BFC0BD22BFB0BD22B0000000039
:0407B400BE2BDB2B52
:1007D00024308400013083120313F0000330A90099
:0807E0000030AA00FA22080013
:020006000034C4
:0C07C2006D3461346734643479340034E1
:02400E004A2F37
:00000001FF
